{
  "contractName": "MusicianManager",
  "abi": [
    {
      "inputs": [
        {
          "internalType": "address",
          "name": "_address",
          "type": "address"
        },
        {
          "internalType": "string",
          "name": "_name",
          "type": "string"
        }
      ],
      "name": "addMusician",
      "outputs": [],
      "stateMutability": "nonpayable",
      "type": "function"
    },
    {
      "inputs": [
        {
          "internalType": "address",
          "name": "_address",
          "type": "address"
        }
      ],
      "name": "getMusician",
      "outputs": [
        {
          "components": [
            {
              "internalType": "string",
              "name": "name",
              "type": "string"
            },
            {
              "components": [
                {
                  "internalType": "string",
                  "name": "title",
                  "type": "string"
                },
                {
                  "internalType": "uint256",
                  "name": "duree",
                  "type": "uint256"
                }
              ],
              "internalType": "struct MusicianManager.Track[]",
              "name": "tracks",
              "type": "tuple[]"
            }
          ],
          "internalType": "struct MusicianManager.Musician",
          "name": "",
          "type": "tuple"
        }
      ],
      "stateMutability": "view",
      "type": "function",
      "constant": true
    },
    {
      "inputs": [
        {
          "internalType": "address",
          "name": "_address",
          "type": "address"
        },
        {
          "internalType": "string",
          "name": "_title",
          "type": "string"
        },
        {
          "internalType": "uint256",
          "name": "_duree",
          "type": "uint256"
        }
      ],
      "name": "addTrack",
      "outputs": [],
      "stateMutability": "nonpayable",
      "type": "function"
    },
    {
      "inputs": [
        {
          "internalType": "address",
          "name": "_address",
          "type": "address"
        }
      ],
      "name": "getTracks",
      "outputs": [
        {
          "components": [
            {
              "internalType": "string",
              "name": "title",
              "type": "string"
            },
            {
              "internalType": "uint256",
              "name": "duree",
              "type": "uint256"
            }
          ],
          "internalType": "struct MusicianManager.Track[]",
          "name": "",
          "type": "tuple[]"
        }
      ],
      "stateMutability": "view",
      "type": "function",
      "constant": true
    }
  ],
  "bytecode": "0x608060405234801561001057600080fd5b50336000806101000a81548173ffffffffffffffffffffffffffffffffffffffff021916908373ffffffffffffffffffffffffffffffffffffffff160217905550611150806100606000396000f3fe608060405234801561001057600080fd5b506004361061004c5760003560e01c80636bcc7782146100515780637b061e3814610081578063b14efb5f1461009d578063ea55d5a8146100b9575b600080fd5b61006b600480360381019061006691906107d8565b6100e9565b60405161007891906109ad565b60405180910390f35b61009b60048036038101906100969190610b04565b610226565b005b6100b760048036038101906100b29190610b8c565b610399565b005b6100d360048036038101906100ce91906107d8565b610566565b6040516100e09190610cc5565b60405180910390f35b6060600160008373ffffffffffffffffffffffffffffffffffffffff1673ffffffffffffffffffffffffffffffffffffffff168152602001908152602001600020600101805480602002602001604051908101604052809291908181526020016000905b8282101561021b578382906000526020600020906002020160405180604001604052908160008201805461018090610d16565b80601f01602080910402602001604051908101604052809291908181526020018280546101ac90610d16565b80156101f95780601f106101ce576101008083540402835291602001916101f9565b820191906000526020600020905b8154815290600101906020018083116101dc57829003601f168201915b505050505081526020016001820154815250508152602001906001019061014d565b505050509050919050565b3373ffffffffffffffffffffffffffffffffffffffff1660008054906101000a900473ffffffffffffffffffffffffffffffffffffffff1673ffffffffffffffffffffffffffffffffffffffff16146102b4576040517f08c379a00000000000000000000000000000000000000000000000000000000081526004016102ab90610da4565b60405180910390fd5b6000600160008473ffffffffffffffffffffffffffffffffffffffff1673ffffffffffffffffffffffffffffffffffffffff168152602001908152602001600020600001805461030390610d16565b905014610345576040517f08c379a000000000000000000000000000000000000000000000000000000000815260040161033c90610e10565b60405180910390fd5b80600160008473ffffffffffffffffffffffffffffffffffffffff1673ffffffffffffffffffffffffffffffffffffffff16815260200190815260200160002060000190816103949190610fdc565b505050565b3373ffffffffffffffffffffffffffffffffffffffff1660008054906101000a900473ffffffffffffffffffffffffffffffffffffffff1673ffffffffffffffffffffffffffffffffffffffff1614610427576040517f08c379a000000000000000000000000000000000000000000000000000000000815260040161041e90610da4565b60405180910390fd5b6000600160008573ffffffffffffffffffffffffffffffffffffffff1673ffffffffffffffffffffffffffffffffffffffff168152602001908152602001600020600001805461047690610d16565b905010156104b9576040517f08c379a00000000000000000000000000000000000000000000000000000000081526004016104b0906110fa565b60405180910390fd5b60006040518060400160405280848152602001838152509050600160008573ffffffffffffffffffffffffffffffffffffffff1673ffffffffffffffffffffffffffffffffffffffff16815260200190815260200160002060010181908060018154018082558091505060019003906000526020600020906002020160009091909190915060008201518160000190816105539190610fdc565b5060208201518160010155505050505050565b61056e61074c565b600160008373ffffffffffffffffffffffffffffffffffffffff1673ffffffffffffffffffffffffffffffffffffffff1681526020019081526020016000206040518060400160405290816000820180546105c890610d16565b80601f01602080910402602001604051908101604052809291908181526020018280546105f490610d16565b80156106415780601f1061061657610100808354040283529160200191610641565b820191906000526020600020905b81548152906001019060200180831161062457829003601f168201915b5050505050815260200160018201805480602002602001604051908101604052809291908181526020016000905b8282101561073d57838290600052602060002090600202016040518060400160405290816000820180546106a290610d16565b80601f01602080910402602001604051908101604052809291908181526020018280546106ce90610d16565b801561071b5780601f106106f05761010080835404028352916020019161071b565b820191906000526020600020905b8154815290600101906020018083116106fe57829003601f168201915b505050505081526020016001820154815250508152602001906001019061066f565b50505050815250509050919050565b604051806040016040528060608152602001606081525090565b6000604051905090565b600080fd5b600080fd5b600073ffffffffffffffffffffffffffffffffffffffff82169050919050565b60006107a58261077a565b9050919050565b6107b58161079a565b81146107c057600080fd5b50565b6000813590506107d2816107ac565b92915050565b6000602082840312156107ee576107ed610770565b5b60006107fc848285016107c3565b91505092915050565b600081519050919050565b600082825260208201905092915050565b6000819050602082019050919050565b600081519050919050565b600082825260208201905092915050565b60005b8381101561086b578082015181840152602081019050610850565b60008484015250505050565b6000601f19601f8301169050919050565b600061089382610831565b61089d818561083c565b93506108ad81856020860161084d565b6108b681610877565b840191505092915050565b6000819050919050565b6108d4816108c1565b82525050565b600060408301600083015184820360008601526108f78282610888565b915050602083015161090c60208601826108cb565b508091505092915050565b600061092383836108da565b905092915050565b6000602082019050919050565b600061094382610805565b61094d8185610810565b93508360208202850161095f85610821565b8060005b8581101561099b578484038952815161097c8582610917565b94506109878361092b565b925060208a01995050600181019050610963565b50829750879550505050505092915050565b600060208201905081810360008301526109c78184610938565b905092915050565b600080fd5b600080fd5b7f4e487b7100000000000000000000000000000000000000000000000000000000600052604160045260246000fd5b610a1182610877565b810181811067ffffffffffffffff82111715610a3057610a2f6109d9565b5b80604052505050565b6000610a43610766565b9050610a4f8282610a08565b919050565b600067ffffffffffffffff821115610a6f57610a6e6109d9565b5b610a7882610877565b9050602081019050919050565b82818337600083830152505050565b6000610aa7610aa284610a54565b610a39565b905082815260208101848484011115610ac357610ac26109d4565b5b610ace848285610a85565b509392505050565b600082601f830112610aeb57610aea6109cf565b5b8135610afb848260208601610a94565b91505092915050565b60008060408385031215610b1b57610b1a610770565b5b6000610b29858286016107c3565b925050602083013567ffffffffffffffff811115610b4a57610b49610775565b5b610b5685828601610ad6565b9150509250929050565b610b69816108c1565b8114610b7457600080fd5b50565b600081359050610b8681610b60565b92915050565b600080600060608486031215610ba557610ba4610770565b5b6000610bb3868287016107c3565b935050602084013567ffffffffffffffff811115610bd457610bd3610775565b5b610be086828701610ad6565b9250506040610bf186828701610b77565b9150509250925092565b600082825260208201905092915050565b6000610c1782610805565b610c218185610bfb565b935083602082028501610c3385610821565b8060005b85811015610c6f5784840389528151610c508582610917565b9450610c5b8361092b565b925060208a01995050600181019050610c37565b50829750879550505050505092915050565b60006040830160008301518482036000860152610c9e8282610888565b91505060208301518482036020860152610cb88282610c0c565b9150508091505092915050565b60006020820190508181036000830152610cdf8184610c81565b905092915050565b7f4e487b7100000000000000000000000000000000000000000000000000000000600052602260045260246000fd5b60006002820490506001821680610d2e57607f821691505b602082108103610d4157610d40610ce7565b5b50919050565b600082825260208201905092915050565b7f566f7573206e276574657320706173206c652070726f70726965746169726500600082015250565b6000610d8e601f83610d47565b9150610d9982610d58565b602082019050919050565b60006020820190508181036000830152610dbd81610d81565b9050919050565b7f4c65206d7573696369656e206578697374652064656a61202100000000000000600082015250565b6000610dfa601983610d47565b9150610e0582610dc4565b602082019050919050565b60006020820190508181036000830152610e2981610ded565b9050919050565b60008190508160005260206000209050919050565b60006020601f8301049050919050565b600082821b905092915050565b600060088302610e927fffffffffffffffffffffffffffffffffffffffffffffffffffffffffffffffff82610e55565b610e9c8683610e55565b95508019841693508086168417925050509392505050565b6000819050919050565b6000610ed9610ed4610ecf846108c1565b610eb4565b6108c1565b9050919050565b6000819050919050565b610ef383610ebe565b610f07610eff82610ee0565b848454610e62565b825550505050565b600090565b610f1c610f0f565b610f27818484610eea565b505050565b5b81811015610f4b57610f40600082610f14565b600181019050610f2d565b5050565b601f821115610f9057610f6181610e30565b610f6a84610e45565b81016020851015610f79578190505b610f8d610f8585610e45565b830182610f2c565b50505b505050565b600082821c905092915050565b6000610fb360001984600802610f95565b1980831691505092915050565b6000610fcc8383610fa2565b9150826002028217905092915050565b610fe582610831565b67ffffffffffffffff811115610ffe57610ffd6109d9565b5b6110088254610d16565b611013828285610f4f565b600060209050601f8311600181146110465760008415611034578287015190505b61103e8582610fc0565b8655506110a6565b601f19841661105486610e30565b60005b8281101561107c57848901518255600182019150602085019450602081019050611057565b868310156110995784890151611095601f891682610fa2565b8355505b6001600288020188555050505b505050505050565b7f4c65206d7573696369656e206e27657869737465206d656d6520706173202100600082015250565b60006110e4601f83610d47565b91506110ef826110ae565b602082019050919050565b60006020820190508181036000830152611113816110d7565b905091905056fea2646970667358221220571203211e3a34fe69a4f4d18e9b412e27ddd8780770d2af2888cc00e93bc1c264736f6c63430008110033",
  "immutableReferences": {},
  "source": "// SPDX-License-Identifier: MIT\npragma solidity ^0.8.9;\n\nimport './OnlyOwner.sol';\n\ncontract MusicianManager is OnlyOwner{\n\n struct Track {\n  string title;\n  uint duree;\n }\n\n struct Musician {\n  string name;\n  Track[] tracks;\n }\n\n mapping(address => Musician) Musicians;\n\n function addMusician(address _address, string memory _name) external _isOwner {\n    require( bytes(Musicians[_address].name).length == 0 , \"Le musicien existe deja !\");\n    Musicians[_address].name = _name;\n }\n\n function getMusician(address _address) external view returns (Musician memory) {\n\n  return Musicians[_address];\n\n }\n\n function addTrack(address _address, string memory _title, uint _duree) external _isOwner {\n    require( bytes(Musicians[_address].name).length >= 0 , \"Le musicien n'existe meme pas !\");\n    Track memory thisTrack = Track(_title, _duree);\n    Musicians[_address].tracks.push(thisTrack); \n }\n\n  function getTracks(address _address) external view returns (Track[] memory) {\n    return Musicians[_address].tracks;\n  }\n\n}",
  "sourcePath": "D:\\cours\\solidity\\tests\\MusiciansManager\\contracts\\MusicianManager.sol",
  "compiler": {
    "name": "solc",
    "version": "0.8.17+commit.8df45f5f.Emscripten.clang"
  },
  "schemaVersion": "3.4.11",
  "updatedAt": "2023-02-10T21:41:03.407Z",
  "networkType": "ethereum",
  "devdoc": {
    "kind": "dev",
    "methods": {},
    "version": 1
  },
  "userdoc": {
    "kind": "user",
    "methods": {},
    "version": 1
  }
}